:1008000003070BFF0F1117FF1F21FF23FF33371BB8
:10081000FF696713191B232D39FF0604000706041F
:10082000020703000501050605040507040103048A
:100830000102040005000507030106030002030589
:100840000003060004030602000105060400070376
:100850000602030602000700040105000304020566
:10086000070501070605040607040607000106043C
:100870000506050700040503020502040507FF0637
:10088000070001060405060507000405030205022A
:10089000040507070004010500030402050705011C
:1008A00007060504060704060400070604020703FA
:1008B00000050105060504050704010304010204FF
:1008C00000050005070301060300020305000306F7
:1008D00000040306020001050604000703060203E4
:1008E000060200FF030401020400050005070301DE
:1008F00006030002030500030600040306020001CC
:0D090000050604000703060203060200FFBF
:100A0B0016430DAC0E100ED81068138819C8264863
:100A1B003F487148D54800FF162CD54871483F48D0
:100A2B00264819C8138810680ED80E100DAC00FF9D
:100A3B00020800000A0A7EFF060E000000FEFEEF11
:100A4B000A147EFF060D000101FEFEEF0A1E7EFF5B
:080A5B000603000001FEFEEF9E
:0B0D2C001425E02443F8E6FE08E6FF73
:100D3700E4FDFCC3ED9FEC9E50070DBD00010C8048
:010D4700F2B9
:010D48002288
:080DE0007F667E03DEFEDFFAF0
:010DE80022E8
:040D4900AD07AC0640
:100D4D00E4FBFAC3EB9DEA9C500A120DE00BBB00CD
:040D5D00010A80EF18
:010D6100226F
:040E0200EFF4FF22E8
:10099900BF01220509E509AC087002050814241AEB
:1009A900F58274083CF583E50990081A93B4FF05AC
:1009B900E4F508F509BF02220509E509AE08700248
:1009C900050814247FF58274083EF583E493FEE557
:1009D9000990087F93B4FF2780200509E509AE082F
:1009E900700205081424E4F58274083EF583E49343
:1009F900FEE5099008E493B4FF05E4F508F509AFAD
:010A090006E6
:010A0A0022C9
:100D8E00758921759850758DFD858D8BE4F587D20B
:020D9E008E22A3
:080DE9008F993099FDC2992297
:070DF100A297B3E433FF22D7
:060A64008B5C8A5D895ED7
:100A6A00E4F55F7D02FCAB5CAA5DA95E8D828C8396
:100A7A00120ABB255FF55F0DBD00010CED64084C41
:100A8A0070E4E55FF4AB5CAA5DA95E900008120A07
:100A9A00E8E4FCFDAB5CAA5DA95E8D828C83120A38
:100AAA00BBFF120DE90DBD00010CED640A4C70E4A8
:010ABA002219
:0F0DC200120DF1EF70FA7B007A00790A020A64D1
:0F0DD100120DF1EF70FA7B007A007914020A64B8
:020D7B00AE07C1
:100D7D00120DF1EF70FA8E247B007A00791E020AB3
:010D8D006401
:100DB200120DF1EF70FA7F887E13120D49020DC2F7
:020DA000A907A1
:0F0DA200895C7F0A7E00120D49E9B55CF3AF5CF6
:010DB100221F
:100D0500C2B6D2B77580FF7590FF75A0FFD290D29D
:100D150091D292D293D294D2957542017529FF1240
:070D25000DC2E4FF020D7B8B
:100B5400A290E433FF120DA0EF640160F37F011251
:100B64000D7B120DF1EF70FA7F05120D7BA290E45C
:100B740033FF120DA0EF701F7F011209997401A8B1
:100B840007088002C333D8FCFF120E028FA07FC473
:080B94007E09120D3780D62204
:100BE400E4F559F55A7F08120D7BE55A25E02443B4
:100BF400F8E6FE08E6F44E60257F011209998F2974
:100C04007401A807088002C333D8FCFF120E028FB8
:0E0C1400A0055AE55A70020559120D2C80CC2D
:010C220022AF
:100B9C00A291E433FF120DA0EF640160F37F011208
:100BAC000D7B120DF1EF70FA7F05120D7BA291E413
:100BBC0033FF120DA0EF701F7F021209997401A868
:100BCC0007088002C333D8FCFF120E028F807FC44B
:080BDC007E09120D3780D622BC
:100C2300E4F559F55A7F08120D7BE55A25E0244374
:100C3300F8E6FE08E6F44E60257F021209998F2834
:100C43007401A807088002C333D8FCFF120E028F79
:0E0C530080055AE55A70020559120D2C80CC0E
:010C61002270
:100B0A00A292E433FF120DA08F5AA293E433FF128C
:100B1A000DA08F5BE55AB40106E55B640160E1E56F
:100B2A005A7004E55B60D97F03120D7BE529B5286D
:100B3A0004E55A600AE52965286009E55B700575D0
:090B4A0059018003E4F559AF598B
:010B5300227F
:100C9D0075A0FF7580FF7FC87E00120D49AF2974C6
:100CAD0001A807088002C333D8FCFF120E028FA0E3
:100CBD00AF297401A807088002C333D8FCFF120EB8
:0A0CCD00028F807FF47E01020D49C2
:050DF8007F06020D7BE7
:050DFD007F07020D7BE1
:100D6200E4F52AF52BC2AF758901C28C758C3C75EE
:090D72008AB0D2A9D2AFD28C22C2
:100C6200120D62120D8E120DB2120D05120B5412DC
:100C72000BE4120B9C120C23120B0ABF0105120D7E
:100C8200F88003120DFD7F04120D7BA295E433FF61
:0B0C9200120DA0BF01D3120C9D80F0DA
:03000B00020CD70D
:100CD700C0E0C0D0052BE52B7002052AC3940AE5B6
:100CE7002A9400400AB2B6B2B7752A00752B00C223
:0E0CF7008C758C3C758AB0D28CD0D0D0E03297
:0300000002090DE5
:0C090D00787FE4F6D8FD75815F02095484
:100ABB00BB010CE58229F582E5833AF583E02250F0
:100ACB0006E92582F8E622BBFE06E92582F8E2223A
:0D0ADB00E58229F582E5833AF583E4932254
:100AE800F8BB010DE58229F582E5833AF583E8F044
:100AF800225006E92582C8F622BBFE05E92582C8F0
:020B0800F222D7
:10091900020C62E493A3F8E493A34003F68001F286
:1009290008DFF48029E493A3F85407240CC8C333DF
:10093900C4540F4420C8834004F456800146F6DFAE
:10094900E4800B0102040810204080900A0BE47E29
:10095900019360BCA3FF543F30E509541FFEE493A3
:10096900A360010ECF54C025E060A840B8E493A36A
:10097900FAE493A3F8E493A3C8C582C8CAC583CA95
:10098900F0A3C8C582C8CAC583CADFE9DEE780BE4D
:010A63000092
:00000001FF
